{
  "_format": "hh-sol-artifact-1",
  "contractName": "AssetsManager",
  "sourceName": "contracts/AssetsManager.sol",
  "abi": [
    {
      "inputs": [],
      "stateMutability": "nonpayable",
      "type": "constructor"
    },
    {
      "inputs": [
        {
          "internalType": "address",
          "name": "owner",
          "type": "address"
        }
      ],
      "name": "OwnableInvalidOwner",
      "type": "error"
    },
    {
      "inputs": [
        {
          "internalType": "address",
          "name": "account",
          "type": "address"
        }
      ],
      "name": "OwnableUnauthorizedAccount",
      "type": "error"
    },
    {
      "anonymous": false,
      "inputs": [
        {
          "indexed": true,
          "internalType": "address",
          "name": "user",
          "type": "address"
        },
        {
          "indexed": true,
          "internalType": "uint256",
          "name": "assetId",
          "type": "uint256"
        }
      ],
      "name": "AssetPurchased",
      "type": "event"
    },
    {
      "anonymous": false,
      "inputs": [
        {
          "indexed": true,
          "internalType": "uint256",
          "name": "assetId",
          "type": "uint256"
        },
        {
          "indexed": false,
          "internalType": "uint256",
          "name": "price",
          "type": "uint256"
        }
      ],
      "name": "AssetRegistered",
      "type": "event"
    },
    {
      "anonymous": false,
      "inputs": [
        {
          "indexed": true,
          "internalType": "address",
          "name": "previousOwner",
          "type": "address"
        },
        {
          "indexed": true,
          "internalType": "address",
          "name": "newOwner",
          "type": "address"
        }
      ],
      "name": "OwnershipTransferred",
      "type": "event"
    },
    {
      "inputs": [
        {
          "internalType": "uint256",
          "name": "",
          "type": "uint256"
        }
      ],
      "name": "assets",
      "outputs": [
        {
          "internalType": "uint256",
          "name": "id",
          "type": "uint256"
        },
        {
          "internalType": "uint256",
          "name": "price",
          "type": "uint256"
        },
        {
          "internalType": "address",
          "name": "owner",
          "type": "address"
        },
        {
          "internalType": "bool",
          "name": "registered",
          "type": "bool"
        }
      ],
      "stateMutability": "view",
      "type": "function"
    },
    {
      "inputs": [
        {
          "internalType": "address",
          "name": "user",
          "type": "address"
        },
        {
          "internalType": "uint256",
          "name": "assetId",
          "type": "uint256"
        }
      ],
      "name": "hasPurchasedAsset",
      "outputs": [
        {
          "internalType": "bool",
          "name": "",
          "type": "bool"
        }
      ],
      "stateMutability": "view",
      "type": "function"
    },
    {
      "inputs": [],
      "name": "owner",
      "outputs": [
        {
          "internalType": "address",
          "name": "",
          "type": "address"
        }
      ],
      "stateMutability": "view",
      "type": "function"
    },
    {
      "inputs": [
        {
          "internalType": "uint256",
          "name": "assetId",
          "type": "uint256"
        }
      ],
      "name": "purchaseAsset",
      "outputs": [],
      "stateMutability": "payable",
      "type": "function"
    },
    {
      "inputs": [
        {
          "internalType": "uint256",
          "name": "assetId",
          "type": "uint256"
        },
        {
          "internalType": "uint256",
          "name": "price",
          "type": "uint256"
        }
      ],
      "name": "registerAsset",
      "outputs": [],
      "stateMutability": "nonpayable",
      "type": "function"
    },
    {
      "inputs": [],
      "name": "renounceOwnership",
      "outputs": [],
      "stateMutability": "nonpayable",
      "type": "function"
    },
    {
      "inputs": [
        {
          "internalType": "address",
          "name": "newOwner",
          "type": "address"
        }
      ],
      "name": "transferOwnership",
      "outputs": [],
      "stateMutability": "nonpayable",
      "type": "function"
    },
    {
      "inputs": [
        {
          "internalType": "address",
          "name": "",
          "type": "address"
        },
        {
          "internalType": "uint256",
          "name": "",
          "type": "uint256"
        }
      ],
      "name": "userPurchases",
      "outputs": [
        {
          "internalType": "bool",
          "name": "",
          "type": "bool"
        }
      ],
      "stateMutability": "view",
      "type": "function"
    },
    {
      "inputs": [],
      "name": "withdraw",
      "outputs": [],
      "stateMutability": "nonpayable",
      "type": "function"
    }
  ],
  "bytecode": "0x608060405234801561001057600080fd5b50338061003757604051631e4fbdf760e01b81526000600482015260240160405180910390fd5b61004081610046565b50610096565b600080546001600160a01b038381166001600160a01b0319831681178455604051919092169283917f8be0079c531659141344cd1fd0a4f28419497f9722a3daafe3b4186f6b6457e09190a35050565b6107bc806100a56000396000f3fe6080604052600436106100965760003560e01c8063cf2c033411610069578063f2fde38b1161004e578063f2fde38b146101d3578063f7925660146101f3578063f8a54c4a1461023957600080fd5b8063cf2c033414610107578063cf35bdd01461015257600080fd5b80633ccfd60b1461009b578063715018a6146100b25780638da5cb5b146100c7578063a457e1c0146100f4575b600080fd5b3480156100a757600080fd5b506100b0610259565b005b3480156100be57600080fd5b506100b06102f1565b3480156100d357600080fd5b506000546040516001600160a01b0390911681526020015b60405180910390f35b6100b06101023660046106e3565b610305565b34801561011357600080fd5b50610142610122366004610718565b600260209081526000928352604080842090915290825290205460ff1681565b60405190151581526020016100eb565b34801561015e57600080fd5b506101a261016d3660046106e3565b60016020819052600091825260409091208054918101546002909101546001600160a01b03811690600160a01b900460ff1684565b6040516100eb949392919093845260208401929092526001600160a01b031660408301521515606082015260800190565b3480156101df57600080fd5b506100b06101ee366004610742565b61045f565b3480156101ff57600080fd5b5061014261020e366004610718565b6001600160a01b03919091166000908152600260209081526040808320938352929052205460ff1690565b34801561024557600080fd5b506100b0610254366004610764565b6104b6565b610261610635565b47806102b45760405162461bcd60e51b815260206004820152601460248201527f4e6f2066756e647320746f20776974686472617700000000000000000000000060448201526064015b60405180910390fd5b600080546040516001600160a01b039091169183156108fc02918491818181858888f193505050501580156102ed573d6000803e3d6000fd5b5050565b6102f9610635565b610303600061067b565b565b6000818152600160205260409020600201548190600160a01b900460ff1661036f5760405162461bcd60e51b815260206004820152601460248201527f417373657420646f6573206e6f7420657869737400000000000000000000000060448201526064016102ab565b60008281526001602081815260409283902083516080810185528154815292810154918301829052600201546001600160a01b03811693830193909352600160a01b90920460ff161515606082015290341461040d5760405162461bcd60e51b815260206004820152601460248201527f496e636f72726563742076616c75652073656e7400000000000000000000000060448201526064016102ab565b336000818152600260209081526040808320878452909152808220805460ff19166001179055518592917f42269b09224b40f0b303d85790b3f28f1f7eacbb8b6143bff10a541a559e499b91a3505050565b610467610635565b6001600160a01b0381166104aa576040517f1e4fbdf7000000000000000000000000000000000000000000000000000000008152600060048201526024016102ab565b6104b38161067b565b50565b600082815260016020526040902060020154600160a01b900460ff161561051f5760405162461bcd60e51b815260206004820152601860248201527f417373657420616c72656164792072656769737465726564000000000000000060448201526064016102ab565b6000811161056f5760405162461bcd60e51b815260206004820152601f60248201527f5072696365206d7573742062652067726561746572207468616e207a65726f0060448201526064016102ab565b604080516080810182528381526020808201848152338385019081526001606085018181526000898152948290529386902094518555915191840191909155516002909201805491511515600160a01b027fffffffffffffffffffffff0000000000000000000000000000000000000000009092166001600160a01b0393909316929092171790555182907f7dadc5774a8ae89e0a41954a81312848a0833424046681bd3657263e50aa5e2d906106299084815260200190565b60405180910390a25050565b6000546001600160a01b03163314610303576040517f118cdaa70000000000000000000000000000000000000000000000000000000081523360048201526024016102ab565b600080546001600160a01b038381167fffffffffffffffffffffffff0000000000000000000000000000000000000000831681178455604051919092169283917f8be0079c531659141344cd1fd0a4f28419497f9722a3daafe3b4186f6b6457e09190a35050565b6000602082840312156106f557600080fd5b5035919050565b80356001600160a01b038116811461071357600080fd5b919050565b6000806040838503121561072b57600080fd5b610734836106fc565b946020939093013593505050565b60006020828403121561075457600080fd5b61075d826106fc565b9392505050565b6000806040838503121561077757600080fd5b5050803592602090910135915056fea2646970667358221220e205223ddd47ec55683fb0ff8f5d0211c0b449956c3b645327e05dcd506cdb4e64736f6c63430008140033",
  "linkReferences": {},
  "deployedLinkReferences": {}
}